:03000000020A00F1
:0C0A0000787FE4F6D8FD75813C020A47BF
:10080000080008320864089608C808FA092C095E2E
:10081000098F09C109F30A240A550A860AB70AE7AB
:100820000B180B480B780BA70BD60C050C330C617F
:100830000C8F0CBC0CE80D140D400D6B0D950DBF0D
:100840000DE80E100E380E5F0E860EAB0ED00EF4B5
:100850000F170F3A0F5B0F7C0F9C0FBB0FD90FF6D2
:100860001013102E10491062107B109210A910BEA8
:1008700010D310E610F9110A111A11291137114479
:10088000114F115A1163116B11721178117C118083
:100890001182118311821180117C11781172116BF8
:1008A0001163115A114F114411371129111A110AEC
:1008B00010F910E610D310BE10A91092107B106230
:1008C0001049102E10130FF60FD90FBB0F9C0F7C81
:1008D0000F5B0F3A0F170EF40ED00EAB0E860E5FA5
:1008E0000E380E100DE80DBF0D950D6B0D400D145B
:1008F0000CE80CBC0C8F0C610C330C050BD60BA751
:100900000B780B480B180AE70AB70A860A550A241F
:1009100009F309C1098F095E092C08FA08C808966D
:1009200008640832080007CE079C076A07380706E4
:1009300006D406A20671063F060D05DC05AB057A56
:100940000549051904E804B804880459042A03FB7E
:1009500003CD039F03710344031802EC02C0029508
:10096000026B0241021801F001C801A1017A015590
:100970000130010C00E900C600A5008400640045B8
:100980000027000A00000000000000000000000A2C
:10099000002700450064008400A500C600E9010CA2
:1009A00001300155017A01A101C801F0021802418C
:1009B000026B029502C002EC031803440371039F0B
:1009C00003CD03FB042A0459048804B804E805197C
:1009D0000549057A05AB05DC060D063F067106A242
:1009E00006D407060738076A079C07CE00000000F8
:1009F00000000000000000000000000000000000F7
:020C4900C100E8
:0C0C370075C3BC43B104D2AF43C34022DC
:080B69008F3C8E3B8D3A8C3964
:100B7100C2007810120BC5E48FC53000FDA908C270
:100B810000AF3CAE3BAD3AAC397808120BC58FC50E
:100B91003000FDAB08C200E53CFF8FC53000FDAD64
:100BA10008EB7B00FA7E00E97810C333CE33CED850
:100BB100F92BFFEE3AFE7C00EF2DFFEC3EFE339564
:030BC100E0FDFC58
:010BC400220E
:03004B00020C2183
:100C2100C0E0C0D0E5C454F02480700585C508D269
:060C310000D0D0D0E0323B
:030C4300D2952225
:100C090053060FE4FCFDEE4430FEE4C29578081269
:070C19000BD8120B69D29504
:010C200022B1
:030C4600D2942223
:020B0400AB073D
:100B0600E4F534F533753201F531EF75F010A47E56
:100B1600005470FFEE3395E0FDFCEF4480FFED7866
:100B260008120BD88F388E378D368C35E53425383C
:100B3600FFE5333537FEE5323536FDE5313535FC33
:100B4600C294120B698F308E2F8D2E8C2DD294E588
:100B560030F530E52F5403F52FE4F52EF52DAE2FA5
:020B6600AF30AE
:010B6800226A
:100BEB00EF1FAA0670011E4A6013E4FCFDC3ED94CF
:0D0BFB000CEC940050EA0DBD00010C80F0E0
:010C080022C9
:100A8C00E4F521F52275230B75240CF529F52A12B2
:080A9C000C37120C43120C464A
:100AA4007F03120B048E2B8F2C75F002E521A424F6
:100AB40000F582E5F03408F583E493F52574019399
:100AC400F52675F002E522A42400F582E5F0340849
:100AD400F583E493F527740193F5282526FFE5258E
:100AE4003527C313FEEF13FF120C09E5232521F567
:0E0AF40021E5242522F5227F0A7E00120BEB5D
:020B020080A0D1
:100A0C00020A8CE493A3F8E493A34003F68001F26A
:100A1C0008DFF48029E493A3F85407240CC8C333EB
:100A2C00C4540F4420C8834004F456800146F6DFBA
:100A3C00E4800B0102040810204080900C49E47EF5
:100A4C00019360BCA3FF543F30E509541FFEE493AF
:100A5C00A360010ECF54C025E060A840B8E493A376
:100A6C00FAE493A3F8E493A3C8C582C8CAC583CAA1
:100A7C00F0A3C8C582C8CAC583CADFE9DEE780BE59
:010C4B0000A8
:100BC500E8600FECC313FCED13FDEE13FEEF13FF0E
:030BD500D8F12232
:100BD800E8600FEFC333FFEE33FEED33FDEC33FC7B
:030BE800D8F1221F
:00000001FF
